{
  "contractName": "AlbumNft",
  "abi": [
    {
      "inputs": [
        {
          "internalType": "string",
          "name": "_coverHash",
          "type": "string"
        },
        {
          "internalType": "string",
          "name": "_title",
          "type": "string"
        },
        {
          "internalType": "string",
          "name": "_artist",
          "type": "string"
        },
        {
          "internalType": "string",
          "name": "_date",
          "type": "string"
        }
      ],
      "payable": false,
      "stateMutability": "nonpayable",
      "type": "constructor"
    },
    {
      "constant": false,
      "inputs": [],
      "name": "mintAlbum",
      "outputs": [],
      "payable": true,
      "stateMutability": "payable",
      "type": "function"
    },
    {
      "constant": false,
      "inputs": [],
      "name": "purchaseAlbum",
      "outputs": [
        {
          "internalType": "string",
          "name": "",
          "type": "string"
        }
      ],
      "payable": true,
      "stateMutability": "payable",
      "type": "function"
    },
    {
      "constant": false,
      "inputs": [
        {
          "internalType": "string",
          "name": "_hash",
          "type": "string"
        },
        {
          "internalType": "string",
          "name": "_title",
          "type": "string"
        }
      ],
      "name": "addSong",
      "outputs": [],
      "payable": false,
      "stateMutability": "nonpayable",
      "type": "function"
    },
    {
      "constant": true,
      "inputs": [],
      "name": "getSongs",
      "outputs": [
        {
          "components": [
            {
              "internalType": "string",
              "name": "hash",
              "type": "string"
            },
            {
              "internalType": "string",
              "name": "title",
              "type": "string"
            },
            {
              "internalType": "string",
              "name": "artist",
              "type": "string"
            },
            {
              "internalType": "string",
              "name": "album",
              "type": "string"
            },
            {
              "internalType": "string",
              "name": "media",
              "type": "string"
            },
            {
              "internalType": "uint256",
              "name": "number",
              "type": "uint256"
            }
          ],
          "internalType": "struct AlbumNft.Song[]",
          "name": "",
          "type": "tuple[]"
        }
      ],
      "payable": false,
      "stateMutability": "view",
      "type": "function"
    },
    {
      "constant": true,
      "inputs": [],
      "name": "getAlbum",
      "outputs": [
        {
          "internalType": "string",
          "name": "",
          "type": "string"
        },
        {
          "internalType": "string",
          "name": "",
          "type": "string"
        },
        {
          "internalType": "string",
          "name": "",
          "type": "string"
        },
        {
          "internalType": "string",
          "name": "",
          "type": "string"
        }
      ],
      "payable": false,
      "stateMutability": "view",
      "type": "function"
    },
    {
      "constant": true,
      "inputs": [
        {
          "internalType": "string",
          "name": "_title",
          "type": "string"
        }
      ],
      "name": "getSong",
      "outputs": [
        {
          "components": [
            {
              "internalType": "string",
              "name": "hash",
              "type": "string"
            },
            {
              "internalType": "string",
              "name": "title",
              "type": "string"
            },
            {
              "internalType": "string",
              "name": "artist",
              "type": "string"
            },
            {
              "internalType": "string",
              "name": "album",
              "type": "string"
            },
            {
              "internalType": "string",
              "name": "media",
              "type": "string"
            },
            {
              "internalType": "uint256",
              "name": "number",
              "type": "uint256"
            }
          ],
          "internalType": "struct AlbumNft.Song",
          "name": "",
          "type": "tuple"
        }
      ],
      "payable": false,
      "stateMutability": "view",
      "type": "function"
    },
    {
      "constant": false,
      "inputs": [],
      "name": "albumSet",
      "outputs": [
        {
          "internalType": "bool",
          "name": "",
          "type": "bool"
        }
      ],
      "payable": false,
      "stateMutability": "nonpayable",
      "type": "function"
    },
    {
      "constant": true,
      "inputs": [],
      "name": "getcurrentReleaseNumber",
      "outputs": [
        {
          "internalType": "uint256",
          "name": "",
          "type": "uint256"
        }
      ],
      "payable": false,
      "stateMutability": "view",
      "type": "function"
    }
  ],
  "bytecode": "0x6080604052336000806101000a81548173ffffffffffffffffffffffffffffffffffffffff021916908373ffffffffffffffffffffffffffffffffffffffff16021790555060008060146101000a81548160ff02191690831515021790555060c8600155600160025567016345785d8a00006004556040518060400160405280601c81526020017f5468616e6b20796f7520666f7220796f75722070757263686173652100000000815250600b9080519060200190620000c19291906200016f565b50348015620000cf57600080fd5b5060405162001f2238038062001f228339818101604052620000f591908101906200027a565b8360056000019080519060200190620001109291906200016f565b5082600560010190805190602001906200012c9291906200016f565b508160056002019080519060200190620001489291906200016f565b508060056003019080519060200190620001649291906200016f565b5050505050620003db565b828054600181600116156101000203166002900490600052602060002090601f016020900481019282601f10620001b257805160ff1916838001178555620001e3565b82800160010185558215620001e3579182015b82811115620001e2578251825591602001919060010190620001c5565b5b509050620001f29190620001f6565b5090565b6200021b91905b8082111562000217576000816000905550600101620001fd565b5090565b90565b600082601f8301126200023057600080fd5b815162000247620002418262000378565b6200034a565b915080825260208301602083018583830111156200026457600080fd5b62000271838284620003a5565b50505092915050565b600080600080608085870312156200029157600080fd5b600085015167ffffffffffffffff811115620002ac57600080fd5b620002ba878288016200021e565b945050602085015167ffffffffffffffff811115620002d857600080fd5b620002e6878288016200021e565b935050604085015167ffffffffffffffff8111156200030457600080fd5b62000312878288016200021e565b925050606085015167ffffffffffffffff8111156200033057600080fd5b6200033e878288016200021e565b91505092959194509250565b6000604051905081810181811067ffffffffffffffff821117156200036e57600080fd5b8060405250919050565b600067ffffffffffffffff8211156200039057600080fd5b601f19601f8301169050602081019050919050565b60005b83811015620003c5578082015181840152602081019050620003a8565b83811115620003d5576000848401525b50505050565b611b3780620003eb6000396000f3fe60806040526004361061007b5760003560e01c8063955de0fd1161004e578063955de0fd1461013e578063a5c525a414610167578063b9bc4df914610171578063d3c783f41461018f5761007b565b8063079e3271146100805780634ba0ced5146100ab57806350ef10c2146100d65780635565f66014610113575b600080fd5b34801561008c57600080fd5b506100956101bd565b6040516100a291906118a6565b60405180910390f35b3480156100b757600080fd5b506100c0610248565b6040516100cd9190611986565b60405180910390f35b3480156100e257600080fd5b506100fd60048036036100f89190810190611409565b610252565b60405161010a9190611964565b60405180910390f35b34801561011f57600080fd5b506101286106ec565b6040516101359190611884565b60405180910390f35b34801561014a57600080fd5b506101656004803603610160919081019061144a565b610a81565b005b61016f610e52565b005b610179610f5c565b60405161018691906118c1565b60405180910390f35b34801561019b57600080fd5b506101a4611042565b6040516101b494939291906118e3565b60405180910390f35b60008060009054906101000a900473ffffffffffffffffffffffffffffffffffffffff1673ffffffffffffffffffffffffffffffffffffffff163373ffffffffffffffffffffffffffffffffffffffff161461021857600080fd5b6001600060146101000a81548160ff021916908315150217905550600060149054906101000a900460ff16905090565b6000600254905090565b61025a6112da565b6000809054906101000a900473ffffffffffffffffffffffffffffffffffffffff1673ffffffffffffffffffffffffffffffffffffffff163373ffffffffffffffffffffffffffffffffffffffff16146102b357600080fd5b60001515600060149054906101000a900460ff161515146102d357600080fd5b60006005800180549050116102e757600080fd5b6102ef6112da565b60008090505b6003548110156106e257836040516020016103109190611841565b6040516020818303038152906040528051906020012060058001828154811061033557fe5b90600052602060002090600602016001016040516020016103569190611858565b6040516020818303038152906040528051906020012014156106d55760058001818154811061038157fe5b90600052602060002090600602016040518060c0016040529081600082018054600181600116156101000203166002900480601f0160208091040260200160405190810160405280929190818152602001828054600181600116156101000203166002900480156104335780601f1061040857610100808354040283529160200191610433565b820191906000526020600020905b81548152906001019060200180831161041657829003601f168201915b50505050508152602001600182018054600181600116156101000203166002900480601f0160208091040260200160405190810160405280929190818152602001828054600181600116156101000203166002900480156104d55780601f106104aa576101008083540402835291602001916104d5565b820191906000526020600020905b8154815290600101906020018083116104b857829003601f168201915b50505050508152602001600282018054600181600116156101000203166002900480601f0160208091040260200160405190810160405280929190818152602001828054600181600116156101000203166002900480156105775780601f1061054c57610100808354040283529160200191610577565b820191906000526020600020905b81548152906001019060200180831161055a57829003601f168201915b50505050508152602001600382018054600181600116156101000203166002900480601f0160208091040260200160405190810160405280929190818152602001828054600181600116156101000203166002900480156106195780601f106105ee57610100808354040283529160200191610619565b820191906000526020600020905b8154815290600101906020018083116105fc57829003601f168201915b50505050508152602001600482018054600181600116156101000203166002900480601f0160208091040260200160405190810160405280929190818152602001828054600181600116156101000203166002900480156106bb5780601f10610690576101008083540402835291602001916106bb565b820191906000526020600020905b81548152906001019060200180831161069e57829003601f168201915b5050505050815260200160058201548152505091506106e2565b80806001019150506102f5565b5080915050919050565b606060058001805480602002602001604051908101604052809291908181526020016000905b82821015610a7857838290600052602060002090600602016040518060c0016040529081600082018054600181600116156101000203166002900480601f0160208091040260200160405190810160405280929190818152602001828054600181600116156101000203166002900480156107ce5780601f106107a3576101008083540402835291602001916107ce565b820191906000526020600020905b8154815290600101906020018083116107b157829003601f168201915b50505050508152602001600182018054600181600116156101000203166002900480601f0160208091040260200160405190810160405280929190818152602001828054600181600116156101000203166002900480156108705780601f1061084557610100808354040283529160200191610870565b820191906000526020600020905b81548152906001019060200180831161085357829003601f168201915b50505050508152602001600282018054600181600116156101000203166002900480601f0160208091040260200160405190810160405280929190818152602001828054600181600116156101000203166002900480156109125780601f106108e757610100808354040283529160200191610912565b820191906000526020600020905b8154815290600101906020018083116108f557829003601f168201915b50505050508152602001600382018054600181600116156101000203166002900480601f0160208091040260200160405190810160405280929190818152602001828054600181600116156101000203166002900480156109b45780601f10610989576101008083540402835291602001916109b4565b820191906000526020600020905b81548152906001019060200180831161099757829003601f168201915b50505050508152602001600482018054600181600116156101000203166002900480601f016020809104026020016040519081016040528092919081815260200182805460018160011615610100020316600290048015610a565780601f10610a2b57610100808354040283529160200191610a56565b820191906000526020600020905b815481529060010190602001808311610a3957829003601f168201915b5050505050815260200160058201548152505081526020019060010190610712565b50505050905090565b6000809054906101000a900473ffffffffffffffffffffffffffffffffffffffff1673ffffffffffffffffffffffffffffffffffffffff163373ffffffffffffffffffffffffffffffffffffffff1614610ada57600080fd5b60001515600060149054906101000a900460ff16151514610afa57600080fd5b610b026112da565b82816000018190525081816020018190525060056002018054600181600116156101000203166002900480601f016020809104026020016040519081016040528092919081815260200182805460018160011615610100020316600290048015610bad5780601f10610b8257610100808354040283529160200191610bad565b820191906000526020600020905b815481529060010190602001808311610b9057829003601f168201915b5050505050816040018190525060056001018054600181600116156101000203166002900480601f016020809104026020016040519081016040528092919081815260200182805460018160011615610100020316600290048015610c535780601f10610c2857610100808354040283529160200191610c53565b820191906000526020600020905b815481529060010190602001808311610c3657829003601f168201915b505050505081606001819052506040518060400160405280600581526020017f617564696f00000000000000000000000000000000000000000000000000000081525081608001819052506001600354018160a001818152505080600560040184604051610cc19190611841565b90815260200160405180910390206000820151816000019080519060200190610ceb929190611310565b506020820151816001019080519060200190610d08929190611310565b506040820151816002019080519060200190610d25929190611310565b506060820151816003019080519060200190610d42929190611310565b506080820151816004019080519060200190610d5f929190611310565b5060a082015181600501559050506005800181908060018154018082558091505090600182039060005260206000209060060201600090919290919091506000820151816000019080519060200190610db9929190611310565b506020820151816001019080519060200190610dd6929190611310565b506040820151816002019080519060200190610df3929190611310565b506060820151816003019080519060200190610e10929190611310565b506080820151816004019080519060200190610e2d929190611310565b5060a08201518160050155505050600360008154809291906001019190505550505050565b6000809054906101000a900473ffffffffffffffffffffffffffffffffffffffff1673ffffffffffffffffffffffffffffffffffffffff163373ffffffffffffffffffffffffffffffffffffffff1614610eab57600080fd5b66038d7ea4c680003411610ebe57600080fd5b60001515600060149054906101000a900460ff16151514610ede57600080fd5b604051602001610eed9061186f565b604051602081830303815290604052805190602001206005600101604051602001610f189190611858565b604051602081830303815290604052805190602001201415610f3957600080fd5b60025460015411610f4957600080fd5b6001600260008282540192505081905550565b60606004543411610fa2576040517f08c379a0000000000000000000000000000000000000000000000000000000008152600401610f9990611944565b60405180910390fd5b600b8054600181600116156101000203166002900480601f0160208091040260200160405190810160405280929190818152602001828054600181600116156101000203166002900480156110385780601f1061100d57610100808354040283529160200191611038565b820191906000526020600020905b81548152906001019060200180831161101b57829003601f168201915b5050505050905090565b6060806060806005600101600560000160056002016005600301838054600181600116156101000203166002900480601f0160208091040260200160405190810160405280929190818152602001828054600181600116156101000203166002900480156110f15780601f106110c6576101008083540402835291602001916110f1565b820191906000526020600020905b8154815290600101906020018083116110d457829003601f168201915b50505050509350828054600181600116156101000203166002900480601f01602080910402602001604051908101604052809291908181526020018280546001816001161561010002031660029004801561118d5780601f106111625761010080835404028352916020019161118d565b820191906000526020600020905b81548152906001019060200180831161117057829003601f168201915b50505050509250818054600181600116156101000203166002900480601f0160208091040260200160405190810160405280929190818152602001828054600181600116156101000203166002900480156112295780601f106111fe57610100808354040283529160200191611229565b820191906000526020600020905b81548152906001019060200180831161120c57829003601f168201915b50505050509150808054600181600116156101000203166002900480601f0160208091040260200160405190810160405280929190818152602001828054600181600116156101000203166002900480156112c55780601f1061129a576101008083540402835291602001916112c5565b820191906000526020600020905b8154815290600101906020018083116112a857829003601f168201915b50505050509050935093509350935090919293565b6040518060c001604052806060815260200160608152602001606081526020016060815260200160608152602001600081525090565b828054600181600116156101000203166002900490600052602060002090601f016020900481019282601f1061135157805160ff191683800117855561137f565b8280016001018555821561137f579182015b8281111561137e578251825591602001919060010190611363565b5b50905061138c9190611390565b5090565b6113b291905b808211156113ae576000816000905550600101611396565b5090565b90565b600082601f8301126113c657600080fd5b81356113d96113d4826119ce565b6119a1565b915080825260208301602083018583830111156113f557600080fd5b611400838284611aa1565b50505092915050565b60006020828403121561141b57600080fd5b600082013567ffffffffffffffff81111561143557600080fd5b611441848285016113b5565b91505092915050565b6000806040838503121561145d57600080fd5b600083013567ffffffffffffffff81111561147757600080fd5b611483858286016113b5565b925050602083013567ffffffffffffffff8111156114a057600080fd5b6114ac858286016113b5565b9150509250929050565b60006114c2838361177e565b905092915050565b60006114d582611a1f565b6114df8185611a4d565b9350836020820285016114f1856119fa565b8060005b8581101561152d578484038952815161150e85826114b6565b945061151983611a40565b925060208a019950506001810190506114f5565b50829750879550505050505092915050565b61154881611a8b565b82525050565b600061155982611a35565b6115638185611a6f565b9350611573818560208601611ab0565b61157c81611ae3565b840191505092915050565b600061159282611a35565b61159c8185611a80565b93506115ac818560208601611ab0565b80840191505092915050565b60006115c382611a2a565b6115cd8185611a5e565b93506115dd818560208601611ab0565b6115e681611ae3565b840191505092915050565b60008154600181166000811461160e576001811461163357611677565b607f600283041661161f8187611a80565b955060ff1983168652808601935050611677565b600282046116418187611a80565b955061164c85611a0a565b60005b8281101561166e5781548189015260018201915060208101905061164f565b82880195505050505b505092915050565b600061168c601f83611a6f565b91507f506c6561736520636865636b207468697320616c62756d2773207072696365006000830152602082019050919050565b60006116cc600083611a80565b9150600082019050919050565b600060c08301600083015184820360008601526116f682826115b8565b9150506020830151848203602086015261171082826115b8565b9150506040830151848203604086015261172a82826115b8565b9150506060830151848203606086015261174482826115b8565b9150506080830151848203608086015261175e82826115b8565b91505060a083015161177360a0860182611823565b508091505092915050565b600060c083016000830151848203600086015261179b82826115b8565b915050602083015184820360208601526117b582826115b8565b915050604083015184820360408601526117cf82826115b8565b915050606083015184820360608601526117e982826115b8565b9150506080830151848203608086015261180382826115b8565b91505060a083015161181860a0860182611823565b508091505092915050565b61182c81611a97565b82525050565b61183b81611a97565b82525050565b600061184d8284611587565b915081905092915050565b600061186482846115f1565b915081905092915050565b600061187a826116bf565b9150819050919050565b6000602082019050818103600083015261189e81846114ca565b905092915050565b60006020820190506118bb600083018461153f565b92915050565b600060208201905081810360008301526118db818461154e565b905092915050565b600060808201905081810360008301526118fd818761154e565b90508181036020830152611911818661154e565b90508181036040830152611925818561154e565b90508181036060830152611939818461154e565b905095945050505050565b6000602082019050818103600083015261195d8161167f565b9050919050565b6000602082019050818103600083015261197e81846116d9565b905092915050565b600060208201905061199b6000830184611832565b92915050565b6000604051905081810181811067ffffffffffffffff821117156119c457600080fd5b8060405250919050565b600067ffffffffffffffff8211156119e557600080fd5b601f19601f8301169050602081019050919050565b6000819050602082019050919050565b60008190508160005260206000209050919050565b600081519050919050565b600081519050919050565b600081519050919050565b6000602082019050919050565b600082825260208201905092915050565b600082825260208201905092915050565b600082825260208201905092915050565b600081905092915050565b60008115159050919050565b6000819050919050565b82818337600083830152505050565b60005b83811015611ace578082015181840152602081019050611ab3565b83811115611add576000848401525b50505050565b6000601f19601f830116905091905056fea365627a7a7231582026d7a4a7423affc8aa014bfe62ddceb3f441c30267bc7679440add40423c9b876c6578706572696d656e74616cf564736f6c63430005100040",
  "source": "// SPDX-License-Identifier: MIT\npragma solidity >=0.4.21 <0.9.0;\n\npragma experimental ABIEncoderV2;\n\n// import \"./PriceConsumerV3.sol\";\n\n// is PriceConsumerV3\ncontract AlbumNft {\n    address _owner = msg.sender;\n    bool _albumSet = false;\n    uint256 maxSupply = 200;\n    uint256 currentReleaseNumber = 1;\n    uint256 songCount;\n    uint256 price = 0.1 ether;\n    Album theAlbum;\n    string purchaseMessage = \"Thank you for your purchase!\";\n\n    constructor(\n        string memory _coverHash,\n        string memory _title,\n        string memory _artist,\n        string memory _date\n    ) public {\n        theAlbum.coverHash = _coverHash;\n        theAlbum.title = _title;\n        theAlbum.artist = _artist;\n        theAlbum.date = _date;\n    }\n\n    // receive () external payable {}\n\n    struct Song {\n        string hash;\n        string title;\n        string artist;\n        string album;\n        string media;\n        uint256 number;\n    }\n\n    struct Album {\n        string coverHash;\n        string title;\n        string artist;\n        string date;\n        mapping(string => Song) songs;\n        Song[] songlist;\n    }\n\n    function mintAlbum() external payable {\n        require(msg.sender == _owner);\n        require(msg.value > 0.001 ether);\n        require(_albumSet == false);\n        require(\n            keccak256(abi.encodePacked(theAlbum.title)) !=\n                keccak256(abi.encodePacked(\"\"))\n        );\n        require(maxSupply > currentReleaseNumber);\n\n        currentReleaseNumber += 1;\n    }\n\n    function purchaseAlbum() external payable returns (string memory) {\n        require(msg.value > price, \"Please check this album's price\");\n        return purchaseMessage;\n    }\n\n    function addSong(string memory _hash, string memory _title) public {\n        require(msg.sender == _owner);\n        require(_albumSet == false);\n        Song memory newSong;\n        newSong.hash = _hash;\n        newSong.title = _title;\n        newSong.artist = theAlbum.artist;\n        newSong.album = theAlbum.title;\n        newSong.media = \"audio\";\n        newSong.number = songCount + 1;\n        theAlbum.songs[_hash] = newSong;\n        theAlbum.songlist.push(newSong);\n        songCount++;\n    }\n\n    function getSongs() public view returns (Song[] memory) {\n        return theAlbum.songlist;\n    }\n\n    function getAlbum()\n        public\n        view\n        returns (\n            string memory,\n            string memory,\n            string memory,\n            string memory\n        )\n    {\n        return (\n            theAlbum.title,\n            theAlbum.coverHash,\n            theAlbum.artist,\n            theAlbum.date\n        );\n    }\n\n    function getSong(string memory _title) public view returns (Song memory) {\n        require(msg.sender == _owner);\n        require(_albumSet == false);\n        require(theAlbum.songlist.length > 0);\n        Song memory requestedSong;\n        for (uint256 i = 0; i < songCount; i++) {\n            if (\n                keccak256(abi.encodePacked(theAlbum.songlist[i].title)) ==\n                keccak256(abi.encodePacked(_title))\n            ) {\n                requestedSong = theAlbum.songlist[i];\n                break;\n            }\n        }\n        return requestedSong;\n    }\n\n    function albumSet() public returns (bool) {\n        require(msg.sender == _owner);\n        _albumSet = true;\n        return _albumSet;\n    }\n\n    function getcurrentReleaseNumber() public view returns (uint256) {\n        return currentReleaseNumber;\n    }\n}\n",
  "sourcePath": "/Users/owner/projects/react/react_ipfs/contracts/AlbumNft.sol",
  "compiler": {
    "name": "solc",
    "version": "0.5.16+commit.9c3226ce.Emscripten.clang"
  },
  "schemaVersion": "3.4.3",
  "updatedAt": "2022-04-02T03:59:07.347Z",
  "networkType": "ethereum",
  "devdoc": {
    "methods": {}
  },
  "userdoc": {
    "methods": {}
  }
}