{
  "contractName": "Album",
  "abi": [
    {
      "inputs": [
        {
          "internalType": "string",
          "name": "_coverHash",
          "type": "string"
        },
        {
          "internalType": "string",
          "name": "_title",
          "type": "string"
        },
        {
          "internalType": "string",
          "name": "_artist",
          "type": "string"
        },
        {
          "internalType": "string",
          "name": "_date",
          "type": "string"
        }
      ],
      "payable": false,
      "stateMutability": "nonpayable",
      "type": "constructor"
    },
    {
      "constant": false,
      "inputs": [],
      "name": "mintAlbum",
      "outputs": [],
      "payable": true,
      "stateMutability": "payable",
      "type": "function"
    },
    {
      "constant": false,
      "inputs": [],
      "name": "purchaseAlbum",
      "outputs": [
        {
          "internalType": "string",
          "name": "",
          "type": "string"
        }
      ],
      "payable": true,
      "stateMutability": "payable",
      "type": "function"
    },
    {
      "constant": false,
      "inputs": [
        {
          "internalType": "string",
          "name": "_hash",
          "type": "string"
        },
        {
          "internalType": "string",
          "name": "_title",
          "type": "string"
        }
      ],
      "name": "addSong",
      "outputs": [],
      "payable": false,
      "stateMutability": "nonpayable",
      "type": "function"
    },
    {
      "constant": true,
      "inputs": [],
      "name": "getSongs",
      "outputs": [
        {
          "components": [
            {
              "internalType": "string",
              "name": "hash",
              "type": "string"
            },
            {
              "internalType": "string",
              "name": "title",
              "type": "string"
            },
            {
              "internalType": "string",
              "name": "artist",
              "type": "string"
            },
            {
              "internalType": "string",
              "name": "album",
              "type": "string"
            },
            {
              "internalType": "string",
              "name": "media",
              "type": "string"
            },
            {
              "internalType": "uint256",
              "name": "number",
              "type": "uint256"
            }
          ],
          "internalType": "struct Album.Song[]",
          "name": "",
          "type": "tuple[]"
        }
      ],
      "payable": false,
      "stateMutability": "view",
      "type": "function"
    },
    {
      "constant": true,
      "inputs": [],
      "name": "getAlbum",
      "outputs": [
        {
          "internalType": "string",
          "name": "",
          "type": "string"
        },
        {
          "internalType": "string",
          "name": "",
          "type": "string"
        },
        {
          "internalType": "string",
          "name": "",
          "type": "string"
        },
        {
          "internalType": "string",
          "name": "",
          "type": "string"
        }
      ],
      "payable": false,
      "stateMutability": "view",
      "type": "function"
    },
    {
      "constant": true,
      "inputs": [
        {
          "internalType": "string",
          "name": "_title",
          "type": "string"
        }
      ],
      "name": "getSong",
      "outputs": [
        {
          "components": [
            {
              "internalType": "string",
              "name": "hash",
              "type": "string"
            },
            {
              "internalType": "string",
              "name": "title",
              "type": "string"
            },
            {
              "internalType": "string",
              "name": "artist",
              "type": "string"
            },
            {
              "internalType": "string",
              "name": "album",
              "type": "string"
            },
            {
              "internalType": "string",
              "name": "media",
              "type": "string"
            },
            {
              "internalType": "uint256",
              "name": "number",
              "type": "uint256"
            }
          ],
          "internalType": "struct Album.Song",
          "name": "",
          "type": "tuple"
        }
      ],
      "payable": false,
      "stateMutability": "view",
      "type": "function"
    },
    {
      "constant": false,
      "inputs": [],
      "name": "albumSet",
      "outputs": [
        {
          "internalType": "bool",
          "name": "",
          "type": "bool"
        }
      ],
      "payable": false,
      "stateMutability": "nonpayable",
      "type": "function"
    },
    {
      "constant": true,
      "inputs": [],
      "name": "getcurrentReleaseNumber",
      "outputs": [
        {
          "internalType": "uint256",
          "name": "",
          "type": "uint256"
        }
      ],
      "payable": false,
      "stateMutability": "view",
      "type": "function"
    }
  ],
  "bytecode": "0x6080604052336000806101000a81548173ffffffffffffffffffffffffffffffffffffffff021916908373ffffffffffffffffffffffffffffffffffffffff16021790555060008060146101000a81548160ff02191690831515021790555060c8600155600160025567016345785d8a00006004556040518060400160405280601c81526020017f5468616e6b20796f7520666f7220796f75722070757263686173652100000000815250600b9080519060200190620000c19291906200016f565b50348015620000cf57600080fd5b5060405162001f1838038062001f188339818101604052620000f591908101906200027a565b8360056000019080519060200190620001109291906200016f565b5082600560010190805190602001906200012c9291906200016f565b508160056002019080519060200190620001489291906200016f565b508060056003019080519060200190620001649291906200016f565b5050505050620003db565b828054600181600116156101000203166002900490600052602060002090601f016020900481019282601f10620001b257805160ff1916838001178555620001e3565b82800160010185558215620001e3579182015b82811115620001e2578251825591602001919060010190620001c5565b5b509050620001f29190620001f6565b5090565b6200021b91905b8082111562000217576000816000905550600101620001fd565b5090565b90565b600082601f8301126200023057600080fd5b815162000247620002418262000378565b6200034a565b915080825260208301602083018583830111156200026457600080fd5b62000271838284620003a5565b50505092915050565b600080600080608085870312156200029157600080fd5b600085015167ffffffffffffffff811115620002ac57600080fd5b620002ba878288016200021e565b945050602085015167ffffffffffffffff811115620002d857600080fd5b620002e6878288016200021e565b935050604085015167ffffffffffffffff8111156200030457600080fd5b62000312878288016200021e565b925050606085015167ffffffffffffffff8111156200033057600080fd5b6200033e878288016200021e565b91505092959194509250565b6000604051905081810181811067ffffffffffffffff821117156200036e57600080fd5b8060405250919050565b600067ffffffffffffffff8211156200039057600080fd5b601f19601f8301169050602081019050919050565b60005b83811015620003c5578082015181840152602081019050620003a8565b83811115620003d5576000848401525b50505050565b611b2d80620003eb6000396000f3fe60806040526004361061007b5760003560e01c8063955de0fd1161004e578063955de0fd1461013e578063a5c525a414610167578063b9bc4df914610171578063d3c783f41461018f5761007b565b8063079e3271146100805780634ba0ced5146100ab57806350ef10c2146100d65780635565f66014610113575b600080fd5b34801561008c57600080fd5b506100956101bd565b6040516100a2919061189c565b60405180910390f35b3480156100b757600080fd5b506100c0610248565b6040516100cd919061197c565b60405180910390f35b3480156100e257600080fd5b506100fd60048036036100f891908101906113ff565b610252565b60405161010a919061195a565b60405180910390f35b34801561011f57600080fd5b506101286106e2565b604051610135919061187a565b60405180910390f35b34801561014a57600080fd5b5061016560048036036101609190810190611440565b610a77565b005b61016f610e48565b005b610179610f52565b60405161018691906118b7565b60405180910390f35b34801561019b57600080fd5b506101a4611038565b6040516101b494939291906118d9565b60405180910390f35b60008060009054906101000a900473ffffffffffffffffffffffffffffffffffffffff1673ffffffffffffffffffffffffffffffffffffffff163373ffffffffffffffffffffffffffffffffffffffff161461021857600080fd5b6001600060146101000a81548160ff021916908315150217905550600060149054906101000a900460ff16905090565b6000600254905090565b61025a6112d0565b6000809054906101000a900473ffffffffffffffffffffffffffffffffffffffff1673ffffffffffffffffffffffffffffffffffffffff163373ffffffffffffffffffffffffffffffffffffffff16146102b357600080fd5b60001515600060149054906101000a900460ff161515146102d357600080fd5b60006005800180549050116102e757600080fd5b60008090505b6003548110156106db57826040516020016103089190611837565b6040516020818303038152906040528051906020012060058001828154811061032d57fe5b906000526020600020906006020160010160405160200161034e919061184e565b6040516020818303038152906040528051906020012014156106ce5760058001818154811061037957fe5b90600052602060002090600602016040518060c0016040529081600082018054600181600116156101000203166002900480601f01602080910402602001604051908101604052809291908181526020018280546001816001161561010002031660029004801561042b5780601f106104005761010080835404028352916020019161042b565b820191906000526020600020905b81548152906001019060200180831161040e57829003601f168201915b50505050508152602001600182018054600181600116156101000203166002900480601f0160208091040260200160405190810160405280929190818152602001828054600181600116156101000203166002900480156104cd5780601f106104a2576101008083540402835291602001916104cd565b820191906000526020600020905b8154815290600101906020018083116104b057829003601f168201915b50505050508152602001600282018054600181600116156101000203166002900480601f01602080910402602001604051908101604052809291908181526020018280546001816001161561010002031660029004801561056f5780601f106105445761010080835404028352916020019161056f565b820191906000526020600020905b81548152906001019060200180831161055257829003601f168201915b50505050508152602001600382018054600181600116156101000203166002900480601f0160208091040260200160405190810160405280929190818152602001828054600181600116156101000203166002900480156106115780601f106105e657610100808354040283529160200191610611565b820191906000526020600020905b8154815290600101906020018083116105f457829003601f168201915b50505050508152602001600482018054600181600116156101000203166002900480601f0160208091040260200160405190810160405280929190818152602001828054600181600116156101000203166002900480156106b35780601f10610688576101008083540402835291602001916106b3565b820191906000526020600020905b81548152906001019060200180831161069657829003601f168201915b505050505081526020016005820154815250509150506106dd565b80806001019150506102ed565b505b919050565b606060058001805480602002602001604051908101604052809291908181526020016000905b82821015610a6e57838290600052602060002090600602016040518060c0016040529081600082018054600181600116156101000203166002900480601f0160208091040260200160405190810160405280929190818152602001828054600181600116156101000203166002900480156107c45780601f10610799576101008083540402835291602001916107c4565b820191906000526020600020905b8154815290600101906020018083116107a757829003601f168201915b50505050508152602001600182018054600181600116156101000203166002900480601f0160208091040260200160405190810160405280929190818152602001828054600181600116156101000203166002900480156108665780601f1061083b57610100808354040283529160200191610866565b820191906000526020600020905b81548152906001019060200180831161084957829003601f168201915b50505050508152602001600282018054600181600116156101000203166002900480601f0160208091040260200160405190810160405280929190818152602001828054600181600116156101000203166002900480156109085780601f106108dd57610100808354040283529160200191610908565b820191906000526020600020905b8154815290600101906020018083116108eb57829003601f168201915b50505050508152602001600382018054600181600116156101000203166002900480601f0160208091040260200160405190810160405280929190818152602001828054600181600116156101000203166002900480156109aa5780601f1061097f576101008083540402835291602001916109aa565b820191906000526020600020905b81548152906001019060200180831161098d57829003601f168201915b50505050508152602001600482018054600181600116156101000203166002900480601f016020809104026020016040519081016040528092919081815260200182805460018160011615610100020316600290048015610a4c5780601f10610a2157610100808354040283529160200191610a4c565b820191906000526020600020905b815481529060010190602001808311610a2f57829003601f168201915b5050505050815260200160058201548152505081526020019060010190610708565b50505050905090565b6000809054906101000a900473ffffffffffffffffffffffffffffffffffffffff1673ffffffffffffffffffffffffffffffffffffffff163373ffffffffffffffffffffffffffffffffffffffff1614610ad057600080fd5b60001515600060149054906101000a900460ff16151514610af057600080fd5b610af86112d0565b82816000018190525081816020018190525060056002018054600181600116156101000203166002900480601f016020809104026020016040519081016040528092919081815260200182805460018160011615610100020316600290048015610ba35780601f10610b7857610100808354040283529160200191610ba3565b820191906000526020600020905b815481529060010190602001808311610b8657829003601f168201915b5050505050816040018190525060056001018054600181600116156101000203166002900480601f016020809104026020016040519081016040528092919081815260200182805460018160011615610100020316600290048015610c495780601f10610c1e57610100808354040283529160200191610c49565b820191906000526020600020905b815481529060010190602001808311610c2c57829003601f168201915b505050505081606001819052506040518060400160405280600581526020017f617564696f00000000000000000000000000000000000000000000000000000081525081608001819052506001600354018160a001818152505080600560040184604051610cb79190611837565b90815260200160405180910390206000820151816000019080519060200190610ce1929190611306565b506020820151816001019080519060200190610cfe929190611306565b506040820151816002019080519060200190610d1b929190611306565b506060820151816003019080519060200190610d38929190611306565b506080820151816004019080519060200190610d55929190611306565b5060a082015181600501559050506005800181908060018154018082558091505090600182039060005260206000209060060201600090919290919091506000820151816000019080519060200190610daf929190611306565b506020820151816001019080519060200190610dcc929190611306565b506040820151816002019080519060200190610de9929190611306565b506060820151816003019080519060200190610e06929190611306565b506080820151816004019080519060200190610e23929190611306565b5060a08201518160050155505050600360008154809291906001019190505550505050565b6000809054906101000a900473ffffffffffffffffffffffffffffffffffffffff1673ffffffffffffffffffffffffffffffffffffffff163373ffffffffffffffffffffffffffffffffffffffff1614610ea157600080fd5b66038d7ea4c680003411610eb457600080fd5b60001515600060149054906101000a900460ff16151514610ed457600080fd5b604051602001610ee390611865565b604051602081830303815290604052805190602001206005600101604051602001610f0e919061184e565b604051602081830303815290604052805190602001201415610f2f57600080fd5b60025460015411610f3f57600080fd5b6001600260008282540192505081905550565b60606004543411610f98576040517f08c379a0000000000000000000000000000000000000000000000000000000008152600401610f8f9061193a565b60405180910390fd5b600b8054600181600116156101000203166002900480601f01602080910402602001604051908101604052809291908181526020018280546001816001161561010002031660029004801561102e5780601f106110035761010080835404028352916020019161102e565b820191906000526020600020905b81548152906001019060200180831161101157829003601f168201915b5050505050905090565b6060806060806005600101600560000160056002016005600301838054600181600116156101000203166002900480601f0160208091040260200160405190810160405280929190818152602001828054600181600116156101000203166002900480156110e75780601f106110bc576101008083540402835291602001916110e7565b820191906000526020600020905b8154815290600101906020018083116110ca57829003601f168201915b50505050509350828054600181600116156101000203166002900480601f0160208091040260200160405190810160405280929190818152602001828054600181600116156101000203166002900480156111835780601f1061115857610100808354040283529160200191611183565b820191906000526020600020905b81548152906001019060200180831161116657829003601f168201915b50505050509250818054600181600116156101000203166002900480601f01602080910402602001604051908101604052809291908181526020018280546001816001161561010002031660029004801561121f5780601f106111f45761010080835404028352916020019161121f565b820191906000526020600020905b81548152906001019060200180831161120257829003601f168201915b50505050509150808054600181600116156101000203166002900480601f0160208091040260200160405190810160405280929190818152602001828054600181600116156101000203166002900480156112bb5780601f10611290576101008083540402835291602001916112bb565b820191906000526020600020905b81548152906001019060200180831161129e57829003601f168201915b50505050509050935093509350935090919293565b6040518060c001604052806060815260200160608152602001606081526020016060815260200160608152602001600081525090565b828054600181600116156101000203166002900490600052602060002090601f016020900481019282601f1061134757805160ff1916838001178555611375565b82800160010185558215611375579182015b82811115611374578251825591602001919060010190611359565b5b5090506113829190611386565b5090565b6113a891905b808211156113a457600081600090555060010161138c565b5090565b90565b600082601f8301126113bc57600080fd5b81356113cf6113ca826119c4565b611997565b915080825260208301602083018583830111156113eb57600080fd5b6113f6838284611a97565b50505092915050565b60006020828403121561141157600080fd5b600082013567ffffffffffffffff81111561142b57600080fd5b611437848285016113ab565b91505092915050565b6000806040838503121561145357600080fd5b600083013567ffffffffffffffff81111561146d57600080fd5b611479858286016113ab565b925050602083013567ffffffffffffffff81111561149657600080fd5b6114a2858286016113ab565b9150509250929050565b60006114b88383611774565b905092915050565b60006114cb82611a15565b6114d58185611a43565b9350836020820285016114e7856119f0565b8060005b85811015611523578484038952815161150485826114ac565b945061150f83611a36565b925060208a019950506001810190506114eb565b50829750879550505050505092915050565b61153e81611a81565b82525050565b600061154f82611a2b565b6115598185611a65565b9350611569818560208601611aa6565b61157281611ad9565b840191505092915050565b600061158882611a2b565b6115928185611a76565b93506115a2818560208601611aa6565b80840191505092915050565b60006115b982611a20565b6115c38185611a54565b93506115d3818560208601611aa6565b6115dc81611ad9565b840191505092915050565b60008154600181166000811461160457600181146116295761166d565b607f60028304166116158187611a76565b955060ff198316865280860193505061166d565b600282046116378187611a76565b955061164285611a00565b60005b8281101561166457815481890152600182019150602081019050611645565b82880195505050505b505092915050565b6000611682601f83611a65565b91507f506c6561736520636865636b207468697320616c62756d2773207072696365006000830152602082019050919050565b60006116c2600083611a76565b9150600082019050919050565b600060c08301600083015184820360008601526116ec82826115ae565b9150506020830151848203602086015261170682826115ae565b9150506040830151848203604086015261172082826115ae565b9150506060830151848203606086015261173a82826115ae565b9150506080830151848203608086015261175482826115ae565b91505060a083015161176960a0860182611819565b508091505092915050565b600060c083016000830151848203600086015261179182826115ae565b915050602083015184820360208601526117ab82826115ae565b915050604083015184820360408601526117c582826115ae565b915050606083015184820360608601526117df82826115ae565b915050608083015184820360808601526117f982826115ae565b91505060a083015161180e60a0860182611819565b508091505092915050565b61182281611a8d565b82525050565b61183181611a8d565b82525050565b6000611843828461157d565b915081905092915050565b600061185a82846115e7565b915081905092915050565b6000611870826116b5565b9150819050919050565b6000602082019050818103600083015261189481846114c0565b905092915050565b60006020820190506118b16000830184611535565b92915050565b600060208201905081810360008301526118d18184611544565b905092915050565b600060808201905081810360008301526118f38187611544565b905081810360208301526119078186611544565b9050818103604083015261191b8185611544565b9050818103606083015261192f8184611544565b905095945050505050565b6000602082019050818103600083015261195381611675565b9050919050565b6000602082019050818103600083015261197481846116cf565b905092915050565b60006020820190506119916000830184611828565b92915050565b6000604051905081810181811067ffffffffffffffff821117156119ba57600080fd5b8060405250919050565b600067ffffffffffffffff8211156119db57600080fd5b601f19601f8301169050602081019050919050565b6000819050602082019050919050565b60008190508160005260206000209050919050565b600081519050919050565b600081519050919050565b600081519050919050565b6000602082019050919050565b600082825260208201905092915050565b600082825260208201905092915050565b600082825260208201905092915050565b600081905092915050565b60008115159050919050565b6000819050919050565b82818337600083830152505050565b60005b83811015611ac4578082015181840152602081019050611aa9565b83811115611ad3576000848401525b50505050565b6000601f19601f830116905091905056fea365627a7a72315820882d6729711b608671e586b6f3b8832dbc913d564a5ed6c122a55f4b64c7e72f6c6578706572696d656e74616cf564736f6c63430005100040",
  "source": "// SPDX-License-Identifier: MIT\npragma solidity >=0.4.21 <0.9.0;\npragma experimental ABIEncoderV2;\n\n// import \"./PriceConsumerV3.sol\";\n\n// is PriceConsumerV3\ncontract Album {\n    address _owner = msg.sender;\n    bool _albumSet = false;\n    uint256 maxSupply = 200;\n    uint256 currentReleaseNumber = 1;\n    uint256 songCount;\n    uint256 price = 0.1 ether;\n    Album theAlbum;\n    string purchaseMessage = \"Thank you for your purchase!\";\n\n    constructor(\n        string memory _coverHash,\n        string memory _title,\n        string memory _artist,\n        string memory _date\n    ) public {\n        theAlbum.coverHash = _coverHash;\n        theAlbum.title = _title;\n        theAlbum.artist = _artist;\n        theAlbum.date = _date;\n    }\n\n    // receive () external payable {}\n\n    struct Song {\n        string hash;\n        string title;\n        string artist;\n        string album;\n        string media;\n        uint256 number;\n    }\n\n    struct Album {\n        string coverHash;\n        string title;\n        string artist;\n        string date;\n        mapping(string => Song) songs;\n        Song[] songlist;\n    }\n\n    function mintAlbum() external payable {\n        require(msg.sender == _owner);\n        require(msg.value > 0.001 ether);\n        require(_albumSet == false);\n        require(\n            keccak256(abi.encodePacked(theAlbum.title)) !=\n                keccak256(abi.encodePacked(\"\"))\n        );\n        require(maxSupply > currentReleaseNumber);\n\n        currentReleaseNumber += 1;\n    }\n\n    function purchaseAlbum() external payable returns (string memory) {\n        require(msg.value > price, \"Please check this album's price\");\n        return purchaseMessage;\n    }\n\n    function addSong(string memory _hash, string memory _title) public {\n        require(msg.sender == _owner);\n        require(_albumSet == false);\n        Song memory newSong;\n        newSong.hash = _hash;\n        newSong.title = _title;\n        newSong.artist = theAlbum.artist;\n        newSong.album = theAlbum.title;\n        newSong.media = \"audio\";\n        newSong.number = songCount + 1;\n        theAlbum.songs[_hash] = newSong;\n        theAlbum.songlist.push(newSong);\n        songCount++;\n    }\n\n    function getSongs() public view returns (Song[] memory) {\n        return theAlbum.songlist;\n    }\n\n    function getAlbum()\n        public\n        view\n        returns (\n            string memory,\n            string memory,\n            string memory,\n            string memory\n        )\n    {\n        return (\n            theAlbum.title,\n            theAlbum.coverHash,\n            theAlbum.artist,\n            theAlbum.date\n        );\n    }\n\n    function getSong(string memory _title) public view returns (Song memory) {\n        require(msg.sender == _owner);\n        require(_albumSet == false);\n        require(theAlbum.songlist.length > 0);\n        for (uint256 i = 0; i < songCount; i++) {\n            if (\n                keccak256(abi.encodePacked(theAlbum.songlist[i].title)) ==\n                keccak256(abi.encodePacked(_title))\n            ) {\n                return theAlbum.songlist[i];\n            }\n        }\n    }\n\n    function albumSet() public returns (bool) {\n        require(msg.sender == _owner);\n        _albumSet = true;\n        return _albumSet;\n    }\n\n    function getcurrentReleaseNumber() public view returns (uint256) {\n        return currentReleaseNumber;\n    }\n}\n",
  "sourcePath": "/Users/owner/projects/react/react_ipfs/contracts/Album.sol",
  "compiler": {
    "name": "solc",
    "version": "0.5.16+commit.9c3226ce.Emscripten.clang"
  },
  "schemaVersion": "3.4.3",
  "updatedAt": "2022-04-01T23:23:49.824Z",
  "devdoc": {
    "methods": {}
  },
  "userdoc": {
    "methods": {}
  }
}