{
  "contractName": "SimpleStorage",
  "abi": [
    {
      "constant": true,
      "inputs": [
        {
          "internalType": "uint256",
          "name": "",
          "type": "uint256"
        }
      ],
      "name": "songs",
      "outputs": [
        {
          "internalType": "string",
          "name": "title",
          "type": "string"
        },
        {
          "internalType": "string",
          "name": "artist",
          "type": "string"
        },
        {
          "internalType": "string",
          "name": "album",
          "type": "string"
        },
        {
          "internalType": "string",
          "name": "hash",
          "type": "string"
        },
        {
          "internalType": "string",
          "name": "_type",
          "type": "string"
        }
      ],
      "payable": false,
      "stateMutability": "view",
      "type": "function"
    },
    {
      "constant": false,
      "inputs": [
        {
          "internalType": "string",
          "name": "_title",
          "type": "string"
        },
        {
          "internalType": "string",
          "name": "_artist",
          "type": "string"
        },
        {
          "internalType": "string",
          "name": "_album",
          "type": "string"
        },
        {
          "internalType": "string",
          "name": "_hash",
          "type": "string"
        },
        {
          "internalType": "string",
          "name": "_type",
          "type": "string"
        }
      ],
      "name": "set",
      "outputs": [],
      "payable": false,
      "stateMutability": "nonpayable",
      "type": "function"
    },
    {
      "constant": true,
      "inputs": [
        {
          "internalType": "uint256",
          "name": "idx",
          "type": "uint256"
        }
      ],
      "name": "get",
      "outputs": [
        {
          "internalType": "string",
          "name": "",
          "type": "string"
        }
      ],
      "payable": false,
      "stateMutability": "view",
      "type": "function"
    },
    {
      "constant": true,
      "inputs": [],
      "name": "getAll",
      "outputs": [
        {
          "internalType": "string[]",
          "name": "",
          "type": "string[]"
        }
      ],
      "payable": false,
      "stateMutability": "view",
      "type": "function"
    },
    {
      "constant": false,
      "inputs": [],
      "name": "remove",
      "outputs": [
        {
          "internalType": "bool",
          "name": "",
          "type": "bool"
        }
      ],
      "payable": false,
      "stateMutability": "nonpayable",
      "type": "function"
    }
  ],
  "bytecode": "0x608060405234801561001057600080fd5b50610dd0806100206000396000f3fe608060405234801561001057600080fd5b50600436106100575760003560e01c80631a0b8d551461005c578063304cff301461007857806353ed5143146100ac5780639507d39a146100ca578063a7f43779146100fa575b600080fd5b610076600480360361007191908101906108b3565b610118565b005b610092600480360361008d91908101906109a2565b610207565b6040516100a3959493929190610bad565b60405180910390f35b6100b4610542565b6040516100c19190610b4e565b60405180910390f35b6100e460048036036100df91908101906109a2565b61062b565b6040516100f19190610b8b565b60405180910390f35b6101026106e4565b60405161010f9190610b70565b60405180910390f35b60006040518060a001604052808781526020018681526020018581526020018481526020018381525090806001815401808255809150509060018203906000526020600020906005020160009091929091909150600082015181600001908051906020019061018892919061075d565b5060208201518160010190805190602001906101a592919061075d565b5060408201518160020190805190602001906101c292919061075d565b5060608201518160030190805190602001906101df92919061075d565b5060808201518160040190805190602001906101fc92919061075d565b505050505050505050565b6000818154811061021457fe5b9060005260206000209060050201600091509050806000018054600181600116156101000203166002900480601f0160208091040260200160405190810160405280929190818152602001828054600181600116156101000203166002900480156102c05780601f10610295576101008083540402835291602001916102c0565b820191906000526020600020905b8154815290600101906020018083116102a357829003601f168201915b505050505090806001018054600181600116156101000203166002900480601f01602080910402602001604051908101604052809291908181526020018280546001816001161561010002031660029004801561035e5780601f106103335761010080835404028352916020019161035e565b820191906000526020600020905b81548152906001019060200180831161034157829003601f168201915b505050505090806002018054600181600116156101000203166002900480601f0160208091040260200160405190810160405280929190818152602001828054600181600116156101000203166002900480156103fc5780601f106103d1576101008083540402835291602001916103fc565b820191906000526020600020905b8154815290600101906020018083116103df57829003601f168201915b505050505090806003018054600181600116156101000203166002900480601f01602080910402602001604051908101604052809291908181526020018280546001816001161561010002031660029004801561049a5780601f1061046f5761010080835404028352916020019161049a565b820191906000526020600020905b81548152906001019060200180831161047d57829003601f168201915b505050505090806004018054600181600116156101000203166002900480601f0160208091040260200160405190810160405280929190818152602001828054600181600116156101000203166002900480156105385780601f1061050d57610100808354040283529160200191610538565b820191906000526020600020905b81548152906001019060200180831161051b57829003601f168201915b5050505050905085565b60606002805480602002602001604051908101604052809291908181526020016000905b82821015610622578382906000526020600020018054600181600116156101000203166002900480601f01602080910402602001604051908101604052809291908181526020018280546001816001161561010002031660029004801561060e5780601f106105e35761010080835404028352916020019161060e565b820191906000526020600020905b8154815290600101906020018083116105f157829003601f168201915b505050505081526020019060010190610566565b50505050905090565b60606002828154811061063a57fe5b906000526020600020018054600181600116156101000203166002900480601f0160208091040260200160405190810160405280929190818152602001828054600181600116156101000203166002900480156106d85780601f106106ad576101008083540402835291602001916106d8565b820191906000526020600020905b8154815290600101906020018083116106bb57829003601f168201915b50505050509050919050565b6000806002805490501161072d576040517f08c379a000000000000000000000000000000000000000000000000000000000815260040161072490610c23565b60405180910390fd5b600280548061073857fe5b60019003818190600052602060002001600061075491906107dd565b90556001905090565b828054600181600116156101000203166002900490600052602060002090601f016020900481019282601f1061079e57805160ff19168380011785556107cc565b828001600101855582156107cc579182015b828111156107cb5782518255916020019190600101906107b0565b5b5090506107d99190610825565b5090565b50805460018160011615610100020316600290046000825580601f106108035750610822565b601f0160209004906000526020600020908101906108219190610825565b5b50565b61084791905b8082111561084357600081600090555060010161082b565b5090565b90565b600082601f83011261085b57600080fd5b813561086e61086982610c70565b610c43565b9150808252602083016020830185838301111561088a57600080fd5b610895838284610d23565b50505092915050565b6000813590506108ad81610d76565b92915050565b600080600080600060a086880312156108cb57600080fd5b600086013567ffffffffffffffff8111156108e557600080fd5b6108f18882890161084a565b955050602086013567ffffffffffffffff81111561090e57600080fd5b61091a8882890161084a565b945050604086013567ffffffffffffffff81111561093757600080fd5b6109438882890161084a565b935050606086013567ffffffffffffffff81111561096057600080fd5b61096c8882890161084a565b925050608086013567ffffffffffffffff81111561098957600080fd5b6109958882890161084a565b9150509295509295909350565b6000602082840312156109b457600080fd5b60006109c28482850161089e565b91505092915050565b60006109d78383610a9c565b905092915050565b60006109ea82610cac565b6109f48185610cda565b935083602082028501610a0685610c9c565b8060005b85811015610a425784840389528151610a2385826109cb565b9450610a2e83610ccd565b925060208a01995050600181019050610a0a565b50829750879550505050505092915050565b610a5d81610d0d565b82525050565b6000610a6e82610cc2565b610a788185610cfc565b9350610a88818560208601610d32565b610a9181610d65565b840191505092915050565b6000610aa782610cb7565b610ab18185610ceb565b9350610ac1818560208601610d32565b610aca81610d65565b840191505092915050565b6000610ae082610cb7565b610aea8185610cfc565b9350610afa818560208601610d32565b610b0381610d65565b840191505092915050565b6000610b1b601d83610cfc565b91507f546865726520617265206e6f2068617368657320746f2072656d6f76650000006000830152602082019050919050565b60006020820190508181036000830152610b6881846109df565b905092915050565b6000602082019050610b856000830184610a54565b92915050565b60006020820190508181036000830152610ba58184610a63565b905092915050565b600060a0820190508181036000830152610bc78188610ad5565b90508181036020830152610bdb8187610ad5565b90508181036040830152610bef8186610ad5565b90508181036060830152610c038185610ad5565b90508181036080830152610c178184610ad5565b90509695505050505050565b60006020820190508181036000830152610c3c81610b0e565b9050919050565b6000604051905081810181811067ffffffffffffffff82111715610c6657600080fd5b8060405250919050565b600067ffffffffffffffff821115610c8757600080fd5b601f19601f8301169050602081019050919050565b6000819050602082019050919050565b600081519050919050565b600081519050919050565b600081519050919050565b6000602082019050919050565b600082825260208201905092915050565b600082825260208201905092915050565b600082825260208201905092915050565b60008115159050919050565b6000819050919050565b82818337600083830152505050565b60005b83811015610d50578082015181840152602081019050610d35565b83811115610d5f576000848401525b50505050565b6000601f19601f8301169050919050565b610d7f81610d19565b8114610d8a57600080fd5b5056fea365627a7a7231582084388ec0731bcfcc8b35e0480b3dea4f0264c54ea3e77a5b8ffbf703a0923a606c6578706572696d656e74616cf564736f6c63430005100040",
  "source": "// SPDX-License-Identifier: MIT\npragma experimental ABIEncoderV2;\npragma solidity >=0.4.21 <8.10.0;\n\ncontract SimpleStorage {\n    struct Song {\n        string title;\n        string artist;\n        string album;\n        string hash;\n        string _type;\n    }\n\n    struct Album {\n        string title;\n        string artist;\n        string date;\n        mapping(string => string) Song;\n    }\n\n    Song[] public songs;\n    string ipfsHash;\n    string[] hashes;\n\n    function set(\n        string memory _title,\n        string memory _artist,\n        string memory _album,\n        string memory _hash,\n        string memory _type\n    ) public {\n        songs.push(Song(_title, _artist, _album, _hash, _type));\n    }\n\n    function get(uint256 idx) public view returns (string memory) {\n        return hashes[idx];\n    }\n\n    function getAll() public view returns (string[] memory) {\n        return hashes;\n    }\n\n    function remove() public returns (bool) {\n        require(hashes.length > 0, \"There are no hashes to remove\");\n        hashes.pop();\n        return true;\n    }\n}\n",
  "sourcePath": "/Users/owner/projects/react/react_ipfs/contracts/SimpleStorage.sol",
  "compiler": {
    "name": "solc",
    "version": "0.5.16+commit.9c3226ce.Emscripten.clang"
  },
  "schemaVersion": "3.4.3",
  "updatedAt": "2022-04-02T06:42:21.717Z",
  "networkType": "ethereum",
  "devdoc": {
    "methods": {}
  },
  "userdoc": {
    "methods": {}
  }
}